:100000000C9461000C9473000C9473000C947300B6
:100010000C9473000C9473000C9473000C94730094
:100020000C9473000C9473000C9473000C94730084
:100030000C9473000C948C020C9473000C94730059
:100040000C9442020C9473000C9473000C94730093
:100050000C9473000C9473000C9473000C94730054
:100060000C9473000C94730000000000240027001F
:100070002A0000000000250028002B0000000000DE
:1000800023002600290004040404040404040202DA
:100090000202020203030303030301020408102007
:1000A0004080010204081020010204081020000012
:1000B0000008000201000003040700000000000027
:1000C000000011241FBECFEFD8E0DEBFCDBF21E07E
:1000D000A0E0B1E001C01D92A231B207E1F70E9499
:1000E00036030C9478040C940000833081F028F4DB
:1000F000813099F08230A9F008958730A9F08830D6
:10010000C9F08430B1F4809180008F7D03C080916C
:1001100080008F7780938000089584B58F7784BDA9
:10012000089584B58F7DFBCF8091B0008F77809349
:10013000B00008958091B0008F7DF9CFCF93DF9309
:10014000282F30E0F901E255FF4F8491F901E6567E
:10015000FF4FD491F901EA57FF4FC491CC23A1F08E
:1001600081110E947500EC2FF0E0EE0FFF1FE458A4
:10017000FF4FA591B491EC91ED2381E090E009F45B
:1001800080E0DF91CF91089580E090E0FACF1F9357
:10019000CF93DF93282F30E0F901E255FF4F849190
:1001A000F901E656FF4FD491F901EA57FF4FC49188
:1001B000CC23A9F0162F81110E947500EC2FF0E0DE
:1001C000EE0FFF1FEE58FF4FA591B4918FB7F89433
:1001D000EC91111108C0D095DE23DC938FBFDF9125
:1001E000CF911F910895DE2BF8CFCF93DF9390E04E
:1001F000FC01E656FF4F24918A579F4FFC018491E2
:100200008823D1F090E0880F991FFC01E859FF4F37
:10021000A591B491FC01EE58FF4FC591D4916111A5
:100220000EC09FB7F8948C91E22FE0958E238C93AB
:100230002881E223E8839FBFDF91CF9108958FB794
:10024000F894EC91E22BEC938FBFF6CF3FB7F89484
:100250008091060190910701A0910801B0910901D8
:1002600026B5A89B05C02F3F19F00196A11DB11D11
:100270003FBFBA2FA92F982F8827BC01CD01620F4D
:10028000711D811D911D42E0660F771F881F991F08
:100290004A95D1F708958F929F92AF92BF92CF92D5
:1002A000DF92EF92FF924B015C010E9426016B01ED
:1002B0007C010E9426016C197D098E099F09683E08
:1002C000734081059105A8F321E0821A9108A108E5
:1002D000B10888EEC80E83E0D81EE11CF11C811421
:1002E0009104A104B10429F7FF90EF90DF90CF9023
:1002F000BF90AF909F908F90089561E089E00E9439
:10030000C70061E08AE00E94C70061E08BE00E94C4
:10031000C70061E08CE00C94C7000197893091051B
:1003200008F09AC0FC01E956FE4F0C945004A0015D
:10033000BA01D601E801FA0108021E0220022602D3
:1003400061E082E00E94C70060E083E00E94C70095
:1003500060E084E00E94C70061E085E00E94C70081
:1003600061E086E00E94C70061E087E00E94C7006C
:1003700061E019C060E082E00E94C70060E083E0B5
:100380000E94C70061E084E00E94C70060E085E051
:100390000E94C70060E086E00E94C70061E087E03D
:1003A0000E94C70060E088E00C94C70060E082E033
:1003B0000E94C70060E083E00E94C70060E084E024
:1003C0000E94C70060E085E00E94C70061E0E3CFC3
:1003D00061E082E00E94C70060E083E00E94C70005
:1003E00060E084E00E94C70061E085E00E94C700F1
:1003F00061E01FC060E082E00E94C70061E083E02E
:100400000E94C70060E084E00E94C70060E0EDCF7A
:1004100060E082E00E94C70061E083E00E94C700C4
:1004200060E084E00E94C70060E085E00E94C700B1
:1004300060E086E00E94C70060E0B1CF60E081CF5D
:1004400060E082E00E94C70060E0E7CF60E082E009
:100450000E94C70060E0D3CF60E082E00E94C70046
:1004600060E083E00E94C70060E084E00E94C70073
:1004700060E085E00E94C70060E086E00E94C7005F
:1004800060E073CF1F920F920FB60F9211242F933B
:100490003F938F939F93AF93BF938091020190916D
:1004A0000301A0910401B09105013091010123E005
:1004B000230F2D3758F50196A11DB11D2093010181
:1004C0008093020190930301A0930401B09305016E
:1004D0008091060190910701A0910801B091090156
:1004E0000196A11DB11D8093060190930701A09371
:1004F0000801B0930901BF91AF919F918F913F91F6
:100500002F910F900FBE0F901F90189526E8230F84
:100510000296A11DB11DD2CF1F920F920FB60F925E
:100520001124CF92DF92EF92FF922F933F934F933C
:100530005F936F937F938F939F93AF93BF93CF936B
:10054000EF93FF930E947D01C0910001C23009F436
:1005500054C0E0F4C13099F1C370CF5FC093000183
:10056000FF91EF91CF91BF91AF919F918F917F912B
:100570006F915F914F913F912F91FF90EF90DF909E
:10058000CF900F900FBE0F901F901895C33009F4B5
:1005900050C0C43009F760910A0170910B0180913D
:1005A0000C0190910D012AE030E040E050E00E9403
:1005B0003104CB010E948D0160E08CE01BC0609192
:1005C0000A0170910B0180910C0190910D0128EEB0
:1005D00033E040E050E00E943104CA01B9012AE052
:1005E00030E040E050E00E943104CB010E948D01D8
:1005F00060E089E00E94C700AFCF60910A0170916E
:100600000B0180910C0190910D0124E630E040E057
:1006100050E00E943104CA01B9012AE030E040E014
:1006200050E00E943104CB010E948D0160E08AE01D
:10063000E1CF60910A0170910B0180910C019091C2
:100640000D012AE0C22ED12CE12CF12CA70196013C
:100650000E943104CA01B901A70196010E94310428
:10066000CB010E948D0160E08BE0C4CF789484B50B
:10067000826084BD84B5816084BD85B5826085BD9E
:1006800085B5816085BD80916E00816080936E002C
:10069000109281008091810082608093810080911E
:1006A00081008160809381008091800081608093CF
:1006B00080008091B10084608093B1008091B0008F
:1006C00081608093B00080917A00846080937A008A
:1006D00080917A00826080937A0080917A008160B4
:1006E00080937A0080917A00806880937A001092DB
:1006F000C10060E08EE00E94F50061E082E00E94AF
:10070000F50061E083E00E94F50061E084E00E9472
:10071000F50061E085E00E94F50061E086E00E945E
:10072000F50061E087E00E94F50061E088E00E944A
:10073000F50061E089E00E94F50061E08AE00E9436
:10074000F50061E08BE00E94F50061E08CE00E9422
:10075000F5000E947D011092800081E0809381006D
:10076000109285001092840080936F0060E00E94D8
:10077000F50061E08DE00E94F500C0E0D0E081E08E
:100780000E949E00019709F056C061E08DE00E9432
:10079000C70061E080E00E94C70060E570E080E093
:1007A00090E00E944B0160E080E00E94C70060E59D
:1007B00070E080E090E00E944B01809110019091E8
:1007C0001101019771F480910E0190910F01019731
:1007D00041F4109211011092100110920F01109229
:1007E0000E018EE00E949E00892BF9F480910A018F
:1007F00090910B01A0910C01B0910D010196A11DEA
:10080000B11D8F3027E29207A105B1050CF5809349
:100810000A0190930B01A0930C01B0930D0168ECB9
:1008200070E080E090E00E944B01209709F4A7CF90
:100830000E940000A4CF60E08DE00E94C70061E04C
:1008400080E00E94C70064EF71E080E090E0B3CFE9
:1008500010920A0110920B0110920C0110920D01DE
:10086000DECF052E97FB1EF400940E94480457FD2E
:1008700007D00E94560407FC03D04EF40C944804A1
:1008800050954095309521953F4F4F4F5F4F0895BC
:1008900090958095709561957F4F8F4F9F4F0895EC
:1008A000EE0FFF1F0590F491E02D0994A1E21A2E9E
:1008B000AA1BBB1BFD010DC0AA1FBB1FEE1FFF1F04
:1008C000A217B307E407F50720F0A21BB30BE40B54
:1008D000F50B661F771F881F991F1A9469F760959B
:1008E0007095809590959B01AC01BD01CF01089555
:0408F000F894FFCFAA
:00000001FF
