:100000000C9462000C948A000C948A000C948A0070
:100010000C948A000C948A000C948A000C948A0038
:100020000C948A000C948A000C948A000C94C706E5
:100030000C948A000C948A000C948A000C948A0018
:100040000C947D060C948A000C948A000C948A000F
:100050000C948A000C948A000C948A000C948A00F8
:100060000C948A000C948A000000000024002700F1
:100070002A0000000000250028002B0000000000DE
:1000800023002600290004040404040404040202DA
:100090000202020203030303030301020408102007
:1000A0004080010204081020010204081020000012
:1000B0000008000201000003040700000000000027
:1000C0000000060A11241FBECFEFD8E0DEBFCDBF6F
:1000D00012E0A0E0B1E0EAE6F6E102C005900D9280
:1000E000A033B107D9F722E0A0E3B2E001C01D922E
:1000F000A93FB207E1F710E0C2E6D0E004C02197C3
:10010000FE010E94240BC136D107C9F70E94830764
:100110000C94330B0C94000096E0899FD0011124BD
:10012000AE58BD4F90967C936E935F9791E09196F9
:100130009C939197E091DF02F091E0029091DE02B2
:10014000992339F0309751F0811108C080918E02C7
:100150000994309719F05C968C91FACF0895CF925C
:10016000DF92EF92FF920F931F9396E0899FF00129
:100170001124EE58FD4F11A2278D30A121303105F9
:1001800051F178F02230310509F451C023303105A6
:1001900009F452C01F910F91FF90EF90DF90CF9024
:1001A00008956623B9F361E070E00E948C002FB7D8
:1001B000F89480916E0290916F02A0917002B091BC
:1001C00071022FBF8093CA029093CB02A093CC02FE
:1001D000B093CD02DFCF9FB7F894C0906E02D0905D
:1001E0006F02E0907002F09071029FBF0091CA020E
:1001F0001091CB022091CC023091CD02C01AD10ACD
:10020000E20AF30A0091DC021091DD0230E020E006
:100210000C151D052E053F0550F462E070E01F919E
:100220000F91FF90EF90DF90CF900C948C006111B4
:10023000B1CF63E070E0F3CF70E060E0F0CFAF9259
:10024000BF92CF92DF92EF92FF920F931F93CF93C3
:10025000DF936C017B018B01040F151FEB015E0125
:10026000AE18BF08C017D10759F06991D601ED91BA
:10027000FC910190F081E02DC6010995892B79F759
:10028000C501DF91CF911F910F91FF90EF90DF900B
:10029000CF90BF90AF900895833081F028F48130E3
:1002A00099F08230A9F008958730A9F08830C9F01C
:1002B0008430B1F4809180008F7D03C080918000F4
:1002C0008F7780938000089584B58F7784BD0895DB
:1002D00084B58F7DFBCF8091B0008F778093B00085
:1002E00008958091B0008F7DF9CFCF93DF93282FB1
:1002F00030E0F901E255FF4F8491F901E656FF4FD6
:10030000D491F901EA57FF4FC491CC23A1F0811198
:100310000E944C01EC2FF0E0EE0FFF1FE458FF4F5E
:10032000A591B491EC91ED2381E090E009F480E097
:10033000DF91CF91089580E090E0FACF862F0C9462
:1003400075011F93CF93DF93282F30E0F901E25519
:10035000FF4F8491F901E656FF4FD491F901EA5716
:10036000FF4FC491CC23A9F0162F81110E944C019C
:10037000EC2FF0E0EE0FFF1FEE58FF4FA591B49168
:100380008FB7F894EC91111108C0D095DE23DC935F
:100390008FBFDF91CF911F910895DE2BF8CF862F6D
:1003A000642F0C94A101CF93DF9390E0FC01E656FB
:1003B000FF4F24918A579F4FFC0184918823C9F0F5
:1003C00090E0880F991FFC01E859FF4FA591B49167
:1003D000FC01EE58FF4FC591D49161110DC09FB73C
:1003E000F8948C91209582238C93888128232883EC
:1003F0009FBFDF91CF910895623051F49FB7F89479
:100400003C91822F809583238C93E8812E2BEFCF14
:100410008FB7F894EC912E2B2C938FBFEACF862FB9
:10042000642F0C94D3016F927F928F929F92AF9220
:10043000BF92CF92DF92EF92FF920F931F93CF93D1
:10044000DF9381E08093DE028FB7F89440916E02D3
:1004500050916F0260917002709171028FBF809114
:10046000CE029091CF02A091D002B091D102481B50
:10047000590B6A0B7B0B8091DA029091DB02B0E0A2
:10048000A0E084179507A607B70708F01DC1C0E0D4
:100490008091D802C81760F4E091D402F091D5029F
:1004A000EC0FF11D62E080810E94D301CF5FF0CF9D
:1004B000712C812C912C540183948091D90278164F
:1004C00008F05FC0072D10E0E091D602F091D7024E
:1004D000E00FF11F61E080810E94D301E091D6021C
:1004E000F091D702E00FF11F60E080810E94A1012E
:1004F000D501C401072C04C0880F991FAA1FBB1F78
:100500000A94D2F76C017C01E094F094612C809104
:10051000D8026816F8F4C62DD0E0E091D402F0912C
:10052000D502EC0FFD1F80810E9475012496CC0F2F
:10053000DD1FCE58DD4F892B41F4888199818C29AC
:100540009D29998388836394E2CF888199818E2144
:100550009F21F7CFE091D602F091D702E00FF11F73
:1005600061E080810E94A1018091D6029091D70222
:10057000080F191F60E0F80180810E94D301739475
:100580009CCFC2E7D2E0FE018FEF9FEF278D30A115
:10059000232B21F4148E968F858F11A2369622E09C
:1005A000EE3AF20799F7F12C96E0D92E8091D80215
:1005B000F81608F050C0E12C0F2D10E0000F111FAD
:1005C00006581D4F2091D902E21608F042C0F801EA
:1005D000608171810E2C02C0769567950A94E2F7CE
:1005E000F29E900111242E0D311DE2E7F2E080E031
:1005F000458D568D2417350709F46AC08F5F3696EE
:100600008A30B1F760FF23C0E2E7F2E090E080E0DB
:10061000448D411117C0E091D202F091D302E20F54
:10062000F31F4081D89EF001D99EF00D1124EE58A1
:10063000FD4F448F368F258F10A2178E61E00E94E8
:10064000AF0005C0019636968A30910509F7E3940C
:10065000B9CFF394ABCF80E099A19111892F269661
:10066000F2E0CE3ADF07C1F79FB7F89440916E02EF
:1006700050916F0260917002709171029FBF409320
:10068000CE025093CF026093D0027093D1028823A0
:10069000D9F0809193028823B9F0809191029091D2
:1006A0009202019789F480918E02DF91CF911F9180
:1006B0000F91FF90EF90DF90CF90BF90AF909F9001
:1006C0008F907F906F9008951092DE0280E0EDCFC2
:1006D0006170B5CF3FB7F89480915702909158025E
:1006E000A0915902B0915A0226B5A89B05C02F3F90
:1006F00019F00196A11DB11D3FBFBA2FA92F982F48
:100700008827BC01CD01620F711D811D911D42E042
:10071000660F771F881F991F4A95D1F708958F920A
:100720009F92AF92BF92CF92DF92EF92FF924B01D6
:100730005C010E946A036B017C010E946A036C19D0
:100740007D098E099F09683E734081059105A8F3D4
:1007500021E0821A9108A108B10888EEC80E83E052
:10076000D81EE11CF11C81149104A104B10429F7E5
:10077000FF90EF90DF90CF90BF90AF909F908F90C1
:1007800008958F929F92AF92BF92FF920F931F9303
:10079000CF93DF93FC01F0808BE08F1508F44AC003
:1007A000828108E512E0081B110987FD1395000FEF
:1007B000111F000F111F8181C8E8D0E0C81BD109AB
:1007C00087FDD395CC0FDD1FCC0FDD1F4E010D2E05
:1007D000000CAA08BB089801012E000C440B550B15
:1007E000281939094A095B09DB010E94DF0A24EB59
:1007F00030E040E050E00E94B50A820E931EA41E35
:10080000B51E8C169D062CF0E801801691060CF49E
:10081000E4012297CC0FDD1F2FB7F8948F2D90E0C5
:10082000FC01EE0FFF1FE80FF91FEE5CFD4FD283B6
:10083000C1832FBFDF91CF911F910F91FF90BF9088
:10084000AF909F908F9008951F93CF93DF93EC010B
:10085000162F88818C3008F04EC061E0812F0E94F5
:10086000D3018881282F30E0F901EE0FFF1FE20F3E
:10087000F31FEE5CFD4F1F736081607C612B608312
:1008800019821A822CE0622F0E94180B829FB001FD
:10089000112430E020E0AB01420F531FFA01EE0FAC
:1008A000FF1FE40FF51FEE5CFD4F908196FD16C013
:1008B0002F5F3F4F2C30310571F781110FC010921F
:1008C000800082E080938100109285001092840065
:1008D000B19A80916F00826080936F00E8818E2FC3
:1008E00090E0FC01EE0FFF1FE80FF91FEE5CFD4FDB
:1008F0008081806480838881DF91CF911F910895EA
:10090000089590E080E008958F929F92AF92BF92F9
:100910000F931F93CF93DF93CDB7DEB7A1970FB699
:10092000F894DEBF0FBECDBF19A2423008F44AE0F2
:100930008E010F5D1F4F842E912CB12CA12CA5018F
:1009400094010E94E70AE62FB901CA01EA3044F592
:10095000E05DD801EE938D01232B242B252B79F715
:1009600090E080E0109769F0FD0101900020E9F728
:100970003197AF014A1B5B0BBD0181EE92E00E94F3
:100980001F01A1960FB6F894DEBF0FBECDBFDF9159
:10099000CF911F910F91BF90AF909F908F9008952E
:1009A000E95CD7CFFC0101900020E9F73197AF0156
:1009B000481B590BBC0181EE92E00C941F01CF93B0
:1009C000DF93EC0160E08E810E94A10161E08E81E5
:1009D0000E94A10160E08E810E94A1018BE891E05C
:1009E0000197F1F7DF91CF910895CF92DF92EF92C7
:1009F000FF920F931F93CF93DF936C017C0187E0ED
:100A0000E80EF11CD0E0C0E0062F10E0B8010C2E7B
:100A100002C0759567950A94E2F76170F7018191BC
:100A20007F010E94A1012196C430D10579F7C6014A
:100A3000DF91CF911F910F91FF90EF90DF90CF90BA
:100A40000C94DF04CF92DF92EF92FF920F931F93EB
:100A5000CF93DF93EC01F62E642F8C810E94A101CD
:100A60008D818F3F19F060E00E94A1010F2D10E0F1
:100A70008F8584FF25C06E0187E0C80ED11CF12C44
:100A8000E12CB8010E2C02C0759567950A94E2F727
:100A90006170F60181916F010E94A101FFEFEF1AD1
:100AA000FF0A88E0E816F10461F7CE01DF91CF91EB
:100AB0001F910F91FF90EF90DF90CF900C94DF0487
:100AC000B80184E0759567958A95E1F7CE010E949B
:100AD000F5046F2DCE01DF91CF911F910F91FF9003
:100AE000EF90DF90CF900C94F50440E0682F81EEFA
:100AF00092E00C94220581E00E9475058BE39FE152
:100B00000197F1F70895CF93DF93823029F4909104
:100B1000F00298609093F0028093F4021092F50234
:100B200080E48093F60280E18093F70280E5809371
:100B3000F80261E08091E5020E94D3018091E60213
:100B40008F3F19F061E00E94D30161E08091E702DC
:100B50000E94D301C1EED2E09E01215E324080911D
:100B6000F00284FD0BC084E090E02196281739073D
:100B700044F461E08E810E94D301EECF88E090E0E2
:100B8000F4CF8BE39DE00197F1F760E08091E502FF
:100B90000E94A10160E08091E7020E94A101809182
:100BA000E6028F3F19F060E00E94A1018091F002FF
:100BB00084FD34C063E081EE92E00E94F504CBE452
:100BC000D6E4CE010197F1F763E081EE92E00E9456
:100BD000F5042197F1F763E081EE92E00E94F504BD
:100BE00083E592E00197F1F762E081EE92E00E94E6
:100BF000F5048091F00280620E94750584E0809384
:100C0000F1028CE00E9475050E947B0582E08093D2
:100C1000F20286E0DF91CF910C94750580620E940C
:100C200075058BE496E40197F1F78091F0028062FC
:100C30000E94750583E592E00197F1F78091F0023B
:100C400080620E947505D5CF9091F402691710F06B
:100C50006FEF690FE62FF0E0EF51FD4F9489890F98
:100C600080680C947505CF93DF93EC0161E080E020
:100C70000E942406CE010E94D204C9E0D0E068ECB4
:100C800070E080E090E00E948F038DE291E00E948E
:100C9000D2042197A1F7DF91CF91089541E00E94FE
:100CA000220581E090E00895CF92DF92EF92FF92CB
:100CB0006C01990FEE08FF08F7FE16C041E06DE2E7
:100CC00081EE92E00E94220566277727CB016C19FE
:100CD0007D098E099F094AE00E9484040196FF90D5
:100CE000EF90DF90CF9008954AE0C701B601FF90E2
:100CF000EF90DF90CF900C9484041F920F920FB668
:100D00000F9211242F933F938F939F93AF93BF9391
:100D100080916E0290916F02A0917002B091710269
:100D20003091560223E0230F2D3758F50196A11D6F
:100D3000B11D2093560280936E0290936F02A09390
:100D40007002B09371028091570290915802A09165
:100D50005902B0915A020196A11DB11D809357020C
:100D600090935802A0935902B0935A02BF91AF9149
:100D70009F918F913F912F910F900FBE0F901F90D9
:100D8000189526E8230F0296A11DB11DD2CF1F9200
:100D90000F920FB60F9211242F933F934F935F93AF
:100DA0006F937F938F939F93AF93BF93CF93DF9373
:100DB000EF93FF9380913102C0913002D0E087FF22
:100DC00024C01092850010928400809131028F5FC0
:100DD0008093310280913102082E000C990B8C1700
:100DE0009D0724F4809131028C30C4F180918400FD
:100DF00090918500049680349C4908F47AC08091D3
:100E0000840090918500049676C080913102082E6E
:100E1000000C990B8C179D07C4F6E09131028E2FC0
:100E2000EE0F990BFC01EE0FFF1FE80FF91FEE5CB0
:100E3000FD4F808186FFC9CFE09131028E2FEE0FEA
:100E4000990BFC01EE0FFF1FE80FF91FEE5CFD4F41
:100E5000808160E08F730E94A101B7CF2091840050
:100E600030918500E09131028E2FEE0F990BFC013D
:100E7000EE0FFF1FE80FF91FEE5CFD4F818192819D
:100E8000820F931F9093890080938800E091310234
:100E90008E2FEE0F990BFC01EE0FFF1FE80FF91FCD
:100EA000EE5CFD4F808186FF11C0E09131028E2FF4
:100EB000EE0F990BFC01EE0FFF1FE80FF91FEE5C20
:100EC000FD4F808161E08F730E94A101FF91EF913E
:100ED000DF91CF91BF91AF919F918F917F916F9152
:100EE0005F914F913F912F910F900FBE0F901F90E8
:100EF000189580E49CE990938900809388008FEF97
:100F000080933102E3CF789484B5826084BD84B548
:100F1000816084BD85B5826085BD85B5816085BDF4
:100F200080916E00816080936E00109281008091AC
:100F30008100826080938100809181008160809334
:100F40008100809180008160809380008091B10059
:100F500084608093B1008091B00081608093B00084
:100F600080917A00846080937A0080917A00826018
:100F700080937A0080917A00816080937A008091DA
:100F80007A00806880937A001092C10060E082E06D
:100F90000E94D30160E084E00E94D30160E081E020
:100FA0000E94D30160E080E00E94D30160E085E010
:100FB0000E94D30163E070E08BE592E00E9424047C
:100FC00064E670E08BE592E00E94C10366E070E0A9
:100FD0008EE592E00E94240464E670E08EE592E0E3
:100FE0000E94C10382E00E9483058FE291E00E948B
:100FF000D2048EE391E00E9433060E947B0583E0D9
:1010000090E0909362028093610280E0E82E80E09D
:10101000F82ED1E001E010E085E00E947501019713
:10102000B1F460E080E00E94240686E491E00E9432
:10103000D20461E080E00E94240687E591E00E94EE
:10104000D204E114F10441F30E940000E5CF809145
:101050006D02882309F45CC10E94130280936C0224
:1010600082E00E947501892B29F58091650290919B
:101070006602892BF9F4C0906102D09062021C14C0
:101080001D040CF042C0109366020093650280912B
:10109000630290916402892B69F470E060E08BE553
:1010A00092E00E94C10341E0C41AD108D0926202CA
:1010B000C092610284E00E94750120916502309126
:1010C0006602892BD9F12130310509F05CC080918D
:1010D000630290916402019709F055C068EE73E0D5
:1010E00080E090E00E948F0364E670E08BE592E080
:1010F0000E94C1031092660210926502109264026F
:101100001092630210926D023EC060E080E00E9487
:10111000240688E691E00E94D20461E080E00E940B
:1011200024068AE791E00E94D20468EE73E080E032
:1011300090E00E948F030E947B05BCCF80916302E8
:1011400090916402892B09F0BECFC0906102D090CB
:10115000620253E0C516D1040CF0B5CF10936402BF
:10116000009363022115310509F0ADCF70E060E016
:101170008BE592E00E94C1038FEFC81AD80AD09283
:101180006202C092610260E080E00E9424068CE866
:1011900091E00E94D20483E090E00E94540661E056
:1011A00080E00E9424068AE991E00E94D2048091A6
:1011B0006102909162020E94540681E00E947501D2
:1011C000892B61F58091650290916602892B31F53A
:1011D000109366020093650280916302909164020D
:1011E000892BE1F460E080E00E94240686EA91E029
:1011F0000E94D20461E080E00E94240687EB91E027
:101200000E94D20468EE73E080E090E00E948F03B9
:101210000E947B05109266021092650280E00E9497
:1012200075012091650230916602892B09F1213008
:10123000310509F03FC080916302909164020197EB
:10124000C9F568EE73E080E090E00E948F0364E6E9
:1012500070E08EE592E00E94C10310926602109247
:101260006502109264021092630210926D0222C015
:101270008091630290916402892BC9F6C09061024B
:10128000D0906202E3E0CE16D1048CF61093640293
:10129000009363022115310551F670E060E08EE5A0
:1012A00092E00E94C103FFEFCF1ADF0AD0926202E0
:1012B000C092610260E080E00E9424068CE891E028
:1012C0000E94D20483E090E00E94540661E080E036
:1012D0000E9424068AE991E00E94D2048091610272
:1012E000909162020E94540680916C02833209F050
:1012F000A8CE0E947B0588EC91E00E94D20468EBA6
:101300007BE080E090E00E948F0310926D0299CE06
:101310000E947B0560E080E00E94240687ED91E05A
:101320000E94D2040E94130280936C028823C1F0B1
:10133000C0916B022C2F30E0A90149595D4F6A0121
:10134000FA01808361E08C2F0E94240641E0F601BF
:10135000608181EE92E00E942205CF5FC0936B0214
:1013600080916B02833009F06CCE63E171E087E617
:1013700092E00E942A0B892BE9F50E947B0586EEFC
:1013800091E00E94D204D0936D0264EF71E080E09E
:1013900090E00E948F0385EF91E00E9433060E9447
:1013A0007B0560E080E00E9424068DEF91E00E94C2
:1013B000D20461E080E00E9424068EE092E00E9468
:1013C000D20464EF71E080E090E00E948F0368EE49
:1013D00073E080E090E00E948F030E947B05809183
:1013E0006B02E82FF0E0E859FD4F882361F081504F
:1013F0001292FBCF0E947B058FE192E00E94D20403
:1014000010926D02E4CF10926B021BCECF9310921C
:10141000E4021092E30285E291E09093E20280936D
:10142000E1028EE08093E502CFEFC093E6028FE009
:101430008093E70280E18093E80281E18093E902F2
:1014400082E18093EA0283E18093EB021092EC0246
:101450001092ED021092EE021092EF021092F00242
:1014600081E00E948305809130028C3008F076C0C4
:1014700091E0980F9093300280935B0290E0FC0122
:10148000EE0FFF1FE80FF91FEE5CFD4F88EB9BE0AE
:1014900092838183809130028C3008F062C091E0A9
:1014A000980F9093300280935E0290E0FC01EE0F63
:1014B000FF1FE80FF91FEE5CFD4F88EB9BE0928366
:1014C0008183109274021092780210927702109227
:1014D00079028BE191E09093730280937202EEE8BF
:1014E000F2E01082148213821582369682E0EA3C82
:1014F000F807B9F783E091E09093D5028093D40286
:1015000080E091E09093D7028093D60284E08093AC
:10151000D80283E08093D90287E091E09093D302D0
:101520008093D2028AE090E09093DB028093DA020B
:1015300084EF91E09093DD028093DC021092E00250
:101540001092DF021092CE021092CF021092D002BF
:101550001092D1021092DE02CF910895C0935B02E7
:1015600099CF8FEF80935E02ACCF052E97FB1EF4D0
:1015700000940E94CC0A57FD07D00E94E70A07FC9E
:1015800003D04EF40C94CC0A50954095309521959B
:101590003F4F4F4F5F4F089590958095709561959F
:1015A0007F4F8F4F9F4F08950E94090BA59F900D6D
:1015B000B49F900DA49F800D911D11240895B7FF35
:1015C0000C94D40A0E94D40A821B930B0895A1E2C2
:1015D0001A2EAA1BBB1BFD010DC0AA1FBB1FEE1FAD
:1015E000FF1FA217B307E407F50720F0A21BB30BF8
:1015F000E40BF50B661F771F881F991F1A9469F774
:1016000060957095809590959B01AC01BD01CF01CF
:101610000895A29FB001B39FC001A39F700D811DCB
:101620001124911DB29F700D811D1124911D0895EB
:10163000991B79E004C0991F961708F0961B881F24
:101640007A95C9F780950895EE0FFF1F0590F491E4
:10165000E02D0994FB01DC018D91019080190110AE
:0A166000D9F3990B0895F894FFCF19
:10166A000D0C0B0A0908073132333435363738394D
:10167A002A302331323300000000000F02CF019ECE
:10168A0001000000004E061F01810480042E005054
:10169A00726F74656374656420446F6F72004C6F77
:1016AA006164696E67002020476173204465746530
:1016BA0063746564202000202020205374617920FF
:1016CA004F7574202020200020536F7272792053A6
:1016DA0070616365206E6F7420002020202041769F
:1016EA0061696C61626C652020202000546F74610E
:1016FA006C2053706163653A2000417661696C61C0
:10170A00626C653A2000202020202020536F7272DC
:10171A0079202020202000596F752063616E6E6F3A
:10172A007420456E74657200446F6F72206973206D
:10173A00636C6F73656400456E74657220506173E3
:10174A0073776F72640020446F6F72206973204F41
:10175A0070656E200057616974696E6700202043C6
:10176A00617220205061726B696E67202000202010
:10177A0020202053797374656D20202020200020BA
:10178A0057726F6E672050617373776F72642000AF
:00000001FF
